:020000040800F2
:100000000000052031120008810E0008870E00084C
:100010008D0E0008930E0008990E000800000000E5
:100020000000000000000000000000009F0E00081B
:10003000AD0E000800000000BB0E0008C90E00084D
:100040008112000881120008811200088112000844
:100050008112000881120008811200088112000834
:100060008112000881120008811200088112000824
:100070008112000881120008811200088112000814
:100080008112000881120008811200088112000804
:1000900081120008811200088112000881120008F4
:1000A00081120008811200088112000881120008E4
:1000B00081120008811200088112000881120008D4
:1000C00081120008811200088112000881120008C4
:1000D00081120008811200088112000881120008B4
:1000E00081120008811200088112000881120008A4
:1000F0008112000881120008811200088112000894
:100100008112000881120008811200088112000883
:100110008112000881120008811200088112000873
:100120008112000881120008811200088112000863
:100130008112000881120008811200088112000853
:10014000811200088112000881120008D50E0008F3
:100150008112000881120008811200088112000833
:100160008112000881120008811200088112000823
:100170008112000881120008000000000000000049
:100180008112000881120008811200088112000803
:10019000811200088112000800000000811200088E
:1001A0008112000881120008000000000000000019
:1001B0008112000800000000000000008112000809
:1001C00081120008811200088112000881120008C3
:0801D0008112000881120008F1
:1001D80010B5054C237833B9044B13B10448AFF379
:1001E80000800123237010BDFC00002000000000E7
:1001F800288E000808B5034B1BB103490348AFF329
:10020800008008BD0000000000010020288E0008C2
:1002180053B94AB9002908BF00281CBF4FF0FF3165
:100228004FF0FF3000F074B9ADF1080C6DE904CE61
:1002380000F006F8DDF804E0DDE9022304B07047B9
:100248002DE9F047089D04468E46002B4DD18A4281
:10025800944669D9B2FA82F252B101FA02F3C2F1B4
:10026800200120FA01F10CFA02FC41EA030E944045
:100278004FEA1C48210CBEFBF8F61FFA8CF708FB66
:1002880016E341EA034306FB07F199420AD91CEB3E
:10029800030306F1FF3080F01F81994240F21C8170
:1002A800023E63445B1AA4B2B3FBF8F008FB1033B8
:1002B80044EA034400FB07F7A7420AD91CEB0404ED
:1002C80000F1FF3380F00A81A74240F207816444BD
:1002D800023840EA0640E41B00261DB1D440002342
:1002E800C5E900433146BDE8F0878B4209D9002DA6
:1002F80000F0EF800026C5E9000130463146BDE830
:10030800F087B3FA83F6002E4AD18B4202D3824299
:1003180000F2F980841A61EB030301209E46002D48
:10032800E0D0C5E9004EDDE702B9FFDEB2FA82F29D
:10033800002A40F09280A1EB0C014FEA1C471FFAFB
:100348008CFE0126200CB1FBF7F307FB131140EAE2
:1003580001410EFB03F0884208D91CEB010103F1AF
:10036800FF3802D2884200F2CB804346091AA4B271
:10037800B1FBF7F007FB101144EA01440EFB00FE45
:10038800A64508D91CEB040400F1FF3102D2A645AA
:1003980000F2BB800846A4EB0E0440EA03409CE749
:1003A800C6F12007B34022FA07FC4CEA030C20FAF6
:1003B80007F401FA06F31C43F9404FEA1C4900FA16
:1003C80006F3B1FBF9F8200C1FFA8CFE09FB181193
:1003D80040EA014108FB0EF0884202FA06F20BD906
:1003E8001CEB010108F1FF3A80F08880884240F256
:1003F8008580A8F102086144091AA4B2B1FBF9F09A
:1004080009FB101144EA014100FB0EFE8E4508D994
:100418001CEB010100F1FF346CD28E456AD9023819
:10042800614440EA0840A0FB0294A1EB0E01A142FE
:10043800C846A64656D353D05DB1B3EB080261EB6C
:100448000E0101FA07F722FA06F3F1401F43C5E946
:10045800007100263146BDE8F087C2F12003D8407C
:100468000CFA02FC21FA03F3914001434FEA1C47BE
:100478001FFA8CFEB3FBF7F007FB10360B0C43EAB0
:10048800064300FB0EF69E4204FA02F408D91CEB60
:10049800030300F1FF382FD29E422DD9023863445E
:1004A8009B1B89B2B3FBF7F607FB163341EA0341FE
:1004B80006FB0EF38B4208D91CEB010106F1FF384D
:1004C80016D28B4214D9023E6144C91A46EA004644
:1004D80038E72E46284605E70646E3E61846F8E6D6
:1004E8004B45A9D2B9EB020864EB0C0E0138A3E71F
:1004F8004646EAE7204694E74046D1E7D0467BE700
:10050800023B614432E7304609E76444023842E777
:10051800704700BF80B500AF174B184A1A60164BDA
:1005280010225A60144B00229A60134B0022DA60A2
:10053800114B4FF480321A610F4B4FF480125A61FD
:100548000D4B00221A760C4B00225A760A4B0022D9
:100558009A76094B0022DA76074B00221A77064B67
:1005680000225A77044803F00FFB0346002B01D002
:1005780000F04AFB00BF80BD180100200064004065
:1005880080B500AF174B184A1A60164B10225A60F4
:10059800144B00229A60134B0022DA60114B4FF47F
:1005A80080321A610F4B4FF480125A610D4B0022B2
:1005B8001A760C4B00225A760A4B00229A76094B7F
:1005C8000022DA76074B00221A77064B00225A7768
:1005D800044803F0D9FA0346002B01D000F014FBBD
:1005E80000BF80BD40010020006C004080B58CB089
:1005F80000AF786007F11C0300221A605A609A6005
:10060800DA601A617B681B68324A93422DD1002355
:10061800BB61314B1B6C304A43F0007313642E4BA3
:100628001B6C03F00073BB61BB6900237B612A4B21
:100638001B6B294A43F002031363274B1B6B03F020
:1006480002037B617B694FF44073FB6102233B62C9
:1006580000237B620323BB620823FB6207F11C03B0
:1006680019461E4803F0BAFC30E07B681B681C4A38
:1006780093422BD100233B61174B1B6C164A43F066
:1006880000631364144B1B6C03F000633B613B690C
:100698000023FB60104B1B6B0F4A43F002031363EC
:1006A8000D4B1B6B03F00203FB60FB681823FB6117
:1006B80002233B6200237B620323BB620B23FB62A2
:1006C80007F11C031946054803F088FC00BF3037C2
:1006D800BD4680BD0064004000380240000402406E
:1006E800006C004080B500AF064B074A1A60054809
:1006F80003F057FC0346002B01D000F085FA00BF39
:1007080080BD00BF680100200030024080B485B081
:1007180000AF78607B681B680B4A93420DD10023B9
:10072800FB600A4B1B6B094A43F480531363074B66
:100738001B6B03F48053FB60FB6800BF1437BD4696
:100748005DF8047B704700BF00300240003802406B
:1007580080B58AB000AF07F1140300221A605A600E
:100768009A60DA601A6100233B61534B1B6B524A53
:1007780043F004031363504B1B6B03F004033B610A
:100788003B690023FB604C4B1B6B4B4A43F08003D7
:100798001363494B1B6B03F08003FB60FB6800236A
:1007A800BB60454B1B6B444A43F001031363424B48
:1007B8001B6B03F00103BB60BB6800237B603E4BEF
:1007C8001B6B3D4A43F0020313633B4B1B6B03F067
:1007D80002037B607B6800233B60374B1B6B364A08
:1007E80043F008031363344B1B6B03F008033B60AF
:1007F8003B68002246F22001304803F083FD0022C6
:100808004CF221012E4803F07DFD00224FF4806157
:100818002C4803F077FD002204212B4803F072FDD9
:1008280046F220037B610123BB610023FB610023A7
:100838003B6207F114031946204803F0CFFB40F24E
:1008480011137B610023BB610023FB6107F11403D3
:1008580019461A4803F0C2FB4CF221037B610123BD
:10086800BB610023FB6100233B6207F114031946B7
:10087800134803F0B3FB4FF480637B610123BB6132
:100888000023FB6100233B6207F1140319460D485E
:1008980003F0A4FB04237B610123BB610023FB61FC
:1008A80000233B6207F114031946074803F096FB3F
:1008B80000BF2837BD4680BD00380240000802400E
:1008C8000004024000000240000C024080B500AF66
:1008D800124B134A1A60114B124A5A600F4B0022EE
:1008E8009A600E4B0022DA600C4B4FF480421A617A
:1008F8000A4B00225A61094B00229A61074B0022D9
:10090800DA61064B00221A62044803F015FD03461B
:10091800002B01D000F078F900BF80BD70010020E5
:1009280000540040801A060080B500AF124B134AED
:100938001A60114B124A5A600F4B00229A600E4BF4
:100948000022DA600C4B4FF480421A610A4B0022F5
:100958005A61094B00229A61074B0022DA61064B63
:1009680000221A62044803F0E7FC0346002B01D07A
:1009780000F04AF900BF80BDC4010020005C0040BF
:10098800A086010080B58CB000AF786007F11C0329
:1009980000221A605A609A60DA601A617B681B68E4
:1009A800424A93422CD10023BB61414B1B6B404A06
:1009B80043F0020313633E4B1B6B03F00203BB615E
:1009C800BB69C023FB6112233B6200237B620323C4
:1009D800BB620423FB6207F11C031946354803F088
:1009E800FDFA00237B61324B1B6C314A43F4001340
:1009F80013642F4B1B6C03F400137B617B6950E07D
:100A08007B681B682C4A93424BD100233B61284BDF
:100A18001B6B274A43F004031363254B1B6B03F03E
:100A280004033B613B690023FB60214B1B6B204A9D
:100A380043F0010313631E4B1B6B03F00103FB60C0
:100A4800FB684FF40073FB6112233B6200237B6257
:100A58000323BB620423FB6207F11C0319461748F2
:100A680003F0BCFA4FF48073FB6112233B6200234E
:100A78007B620323BB620423FB6207F11C03194654
:100A88000F4803F0ABFA0023BB60094B1B6C084A04
:100A980043F400031364064B1B6C03F40003BB60B0
:100AA800BB6800BF3037BD4680BD00BF0054004062
:100AB8000038024000040240005C00400008024088
:100AC8000000024080B500AF06F0A0FC00F032F84C
:100AD800FFF73EFEFFF71EFDFFF752FDFFF7F6FE9C
:100AE800FFF722FF00F096F800F0CAF800F06AFA63
:100AF80000F092FA00F0BAFAFFF7F4FD00F002FAFB
:100B080002F03EFB01224FF40051094803F0FAFBC2
:100B18004FF4FA6006F0ECFC00224FF40051044850
:100B280003F0F0FB4FF4FA6006F0E2FCEAE700BFDE
:100B38000008024080B594B000AF07F11C033422CE
:100B48000021184608F064F907F1080300221A602A
:100B58005A609A60DA601A6100237B60284B1B6C2C
:100B6800274A43F080531364254B1B6C03F08053D2
:100B78007B607B6800233B60224B1B68214A43F45F
:100B8800404313601F4B1B6803F440433B603B68C2
:100B98000123FB614FF480333B6202237B634FF4F4
:100BA8008003BB630823FB6348233B6402237B6405
:100BB8000323BB640223FB6407F11C03184605F0FA
:100BC80061FA0346002B01D000F01EF80F23BB602A
:100BD8000223FB6000233B614FF480537B610023B9
:100BE800BB6107F108030221184605F0CFFC034654
:100BF800002B01D000F008F800BF5037BD4680BD7B
:100C0800003802400070004080B400AF72B600BFE8
:100C1800FEE7000080B500AF174B184A1A60164B64
:100C28004FF482725A60144B00229A60124B0022D1
:100C3800DA60114B00221A610F4B00225A610E4BE9
:100C48004FF480229A610C4B0022DA610A4B002291
:100C58001A62094B00225A62074B00229A62064B1D
:100C68000A22DA62044805F0AFFE0346002B01D0E1
:100C7800FFF7CAFF00BF80BD180200200030014006
:100C880080B500AF174B184A1A60164B4FF48272A2
:100C98005A60144B00229A60124B0022DA60114B02
:100CA80000221A610F4B00225A610E4B4FF480222A
:100CB8009A610C4B0022DA610A4B00221A62094B36
:100CC80000225A62074B00229A62064B0A22DA6215
:100CD800044805F079FE0346002B01D0FFF794FF86
:100CE80000BF80BD70020020003C004080B58CB081
:100CF80000AF786007F11C0300221A605A609A60FE
:100D0800DA601A617B681B68424A93422CD100233F
:100D1800BB61414B5B6C404A43F4805353643E4B88
:100D28005B6C03F48053BB61BB6900237B613A4B66
:100D38001B6B394A43F001031363374B1B6B03F0FA
:100D480001037B617B69F023FB6102233B62002383
:100D58007B620323BB620523FB6207F11C03194670
:100D68002E4803F03BF950E07B681B682C4A9342FD
:100D78004BD100233B61284B1B6C274A43F40043AB
:100D88001364254B1B6C03F400433B613B69002350
:100D9800FB60214B1B6B204A43F0010313631E4B7E
:100DA8001B6B03F00103FB60FB680023BB601A4B5D
:100DB8001B6B194A43F004031363174B1B6B03F0B7
:100DC8000403BB60BB684FF40043FB6102233B6232
:100DD80000237B620323BB620623FB6207F11C032B
:100DE80019460E4803F0FAF84FF4E053FB6102236A
:100DF8003B6200237B620323BB620623FB6207F18D
:100E08001C031946074803F0E9F800BF3037BD4610
:100E180080BD00BF003001400038024000000240A1
:100E2800003C00400008024080B483B000AF0023BB
:100E38007B60104B5B6C0F4A43F4804353640D4B4B
:100E48005B6C03F480437B607B6800233B60094B49
:100E58001B6C084A43F080531364064B1B6C03F069
:100E680080533B603B6800BF0C37BD465DF8047B90
:100E7800704700BF0038024080B400AFFEE780B47E
:100E880000AFFEE780B400AFFEE780B400AFFEE736
:100E980080B400AFFEE780B400AF00BFBD465DF888
:100EA800047B704780B400AF00BFBD465DF8047B8B
:100EB800704780B400AF00BFBD465DF8047B704743
:100EC80080B500AF06F0F4FA00BF80BD80B500AF72
:100ED800024803F054FD00BF80BD00BFBC180020CD
:100EE80080B400AF064BD3F88830054A43F470034A
:100EF800C2F8883000BFBD465DF8047B704700BF6C
:100F080000ED00E080B582B000AF3B4600221A60D9
:100F18005A60194B194A1A60174B00225A60164B2F
:100F280000229A60144B4FF6FF72DA60124B0022CF
:100F38009A61114805F04EFE0346002B01D0FFF7D9
:100F480063FE08210C4805F094FE0346002B01D0EF
:100F5800FFF75AFE00233B6000237B603B4619469F
:100F6800054805F0BBFD0346002B01D0FFF74CFEFA
:100F780000BF0837BD4680BDC802002000100040F1
:100F880080B485B000AF78607B681B680B4A9342D9
:100F98000DD10023FB600A4B1B6C094A43F0100378
:100FA8001364074B1B6C03F01003FB60FB6800BF66
:100FB8001437BD465DF8047B704700BF0010004041
:100FC8000038024080B500AF114B124A1A60104B2E
:100FD8004FF4E1325A600E4B00229A600C4B00220B
:100FE800DA600B4B00221A61094B0C225A61084B3C
:100FF80000229A61064B0022DA61054805F034FFA9
:101008000346002B01D0FFF7FFFD00BF80BD00BFE6
:10101800100300200050004080B500AF114B124A69
:101028001A60104B4FF4E1325A600E4B00229A605E
:101038000C4B0022DA600B4B00221A61094B0C2280
:101048005A61084B00229A61064B0022DA61054872
:1010580005F00AFF0346002B01D0FFF7D5FD00BFBE
:1010680080BD00BF540300200044004080B500AF9D
:10107800114B124A1A60104B4FF4E1325A600E4B72
:1010880000229A600C4B0022DA600B4B00221A6196
:10109800094B0C225A61084B00229A61064B002228
:1010A800DA61054805F0E0FE0346002B01D0FFF7A2
:1010B800ABFD00BF80BD00BF9803002000140140B5
:1010C80080B58EB000AF786007F1240300221A6063
:1010D8005A609A60DA601A617B681B684B4A9342CF
:1010E8002DD100233B624A4B1B6C494A43F48013C1
:1010F8001364474B1B6C03F480133B623B6A002369
:10110800FB61434B1B6B424A43F002031363404BA2
:101118001B6B03F00203FB61FB694FF440537B62D6
:101128000223BB620023FB6203233B630B237B6325
:1011380007F124031946374802F050FF62E07B6844
:101148001B68354A93422CD10023BB61304B1B6C82
:101158002F4A43F4003313642D4B1B6C03F4003304
:10116800BB61BB6900237B61294B1B6B284A43F099
:1011780001031363264B1B6B03F001037B617B693F
:101188000C237B620223BB620023FB6203233B63C5
:1011980007237B6307F124031946204802F01EFF4A
:1011A80030E07B681B681E4A93422BD100233B61C9
:1011B800174B5B6C164A43F020035364144B5B6C6B
:1011C80003F020033B613B690023FB60104B1B6B62
:1011D8000F4A43F0040313630D4B1B6B03F0040326
:1011E800FB60FB68C0237B620223BB620023FB62B7
:1011F80003233B6308237B6307F12403194609484B
:1012080002F0ECFE00BF3837BD4680BD00500040FC
:101218000038024000040240004400400000024040
:101228000014014000080240DFF834D00D480E4990
:101238000E4A002302E0D458C4500433C4188C4228
:10124800F9D30B4A0B4C002301E013600432A2428D
:10125800FBD3FFF745FE07F0B7FDFFF733FC7047F8
:101268000000052000000020FC000020B08E0008CF
:10127800FC000020EC1F0020FEE7000080B584B0D1
:1012880000AF78600B46FB704FF4077002F038FC33
:10129800F860FB68002B09D17B68D3F8D4227B68FF
:1012A800B032002143F822100223D4E04FF4077231
:1012B8000021F86807F0ACFD7B68D3F8D4227B687E
:1012C800B032F96843F822107B68D3F8D4227B68DF
:1012D800B03253F822207B68C3F8BC227B681B7CA1
:1012E800002B38D15E4B19784FF4007302227868CE
:1012F80002F0E3FA5A4B1B7803F00F0279681346A1
:101308009B0013449B000B44243301221A80554B45
:1013180019784FF400730222786802F0CEFA514B24
:101328001B7803F00F02796813469B0013449B0057
:101338000B4403F5B27301221A804B4B1B7803F060
:101348000F02796813469B0013449B000B44263315
:1013580010221A8035E0424B19784023022278681F
:1013680002F0ABFA3E4B1B7803F00F027968134684
:101378009B0013449B000B44243301221A80394BF1
:10138800197840230222786802F097FA354B1B78C7
:1013980003F00F02796813469B0013449B000B442B
:1013A80003F5B27301221A802F4B1B7803F00F024A
:1013B800796813469B0013449B000B442633102284
:1013C8001A80294B197808230322786802F075FAE5
:1013D800254B1B7803F00F02796813469B001344D2
:1013E8009B000B44243301221A80FB680022C3F8B7
:1013F80004227B68D3F8D4327A68B0339B00134454
:101408005B681B689847FB680022C3F81422FB68D6
:101418000022C3F81822FB68D3F80432002B01D14C
:10142800022318E07B681B7C002B0AD10D4B19782E
:10143800FB68D3F804224FF40073786802F02CFBA1
:1014480008E0084B1978FB68D3F804224023786831
:1014580002F022FB002318461037BD4680BD00BFAE
:101468008B0000208C0000208D00002080B582B009
:1014780000AF78600B46FB703A4B1B7819467868CA
:1014880002F041FA374B1B7803F00F0279681346D4
:101498009B0013449B000B44243300221A80324BD8
:1014A8001B781946786802F02EFA2F4B1B7803F048
:1014B8000F02796813469B0013449B000B4403F505
:1014C800B27300221A80294B1B781946786802F0FB
:1014D8001AFA264B1B7803F00F02796813469B0013
:1014E80013449B000B44243300221A801F4B1B78A3
:1014F80003F00F02796813469B0013449B000B44CA
:10150800263300221A807B68D3F8D4227B68B03255
:1015180053F82230002B1FD07B68D3F8D4327A6876
:10152800B0339B0013445B685B6898477B68D3F8CB
:10153800D4227B68B03253F82230184602F0EEFA13
:101548007B68D3F8D4227B68B032002143F822109C
:101558007B680022C3F8BC22002318460837BD4622
:1015680080BD00BF8B0000208C0000208D00002073
:1015780080B586B000AF786039607B68D3F8D42234
:101588007B68B03253F822303B6100237B73002321
:101598007B810023FB753B69002B01D10323BFE04E
:1015A8003B681B7803F06003002B50D0202B40F0E1
:1015B800AF803B68DB88002B3AD03B681B785BB276
:1015C800002B1BDA7B68D3F8D4327A68B0339B00DF
:1015D80013445B689B683A68507839693A68D288DE
:1015E80098473B68DB88072B28BF0723FB813B69AB
:1015F800FA891946786801F043FD90E03B685A780B
:101608003B6983F800223B68DB883F2B03D83B68A3
:10161800DB88DAB200E040223B6983F801223969AD
:101628003B6993F801321A46786801F055FD76E077
:101638007B68D3F8D4327A68B0339B0013445B6874
:101648009B683A68507800223968984767E03B6899
:101658005B780B2B51D801A252F823F0951600089D
:1016680011170008031700080317000803170008DC
:1016780003170008031700080317000803170008DA
:1016880003170008BF160008E91600087B6893F8DE
:101698009C32DBB2032B07D107F10A030222194659
:1016A800786801F0EDFC32E03968786801F077FC81
:1016B8000323FB752BE07B6893F89C32DBB2032B8A
:1016C80007D107F10D0301221946786801F0D8FC0B
:1016D8001DE03968786801F062FC0323FB7516E0A9
:1016E8007B6893F89C32DBB2032B0FD0396878689B
:1016F80001F055FC0323FB7508E03968786801F0B0
:101708004EFC0323FB7502E000BF08E000BF06E0C3
:101718003968786801F043FC0323FB7500BFFB7D43
:1017280018461837BD4680BD80B584B000AF7860D4
:101738000B46FB707B68D3F8C832FB607B68D3F834
:10174800D4227B68B03253F82230002B01D1032316
:1017580065E07B68D3F8D4227B68B03253F8223036
:10176800BB60FB7803F00F02796813469B001344B3
:101778009B000B4418331B68002B2FD0FB7803F019
:101788000F02796813469B0013449B000B441833DF
:101798001A68FB7803F00F01F8680B46DB000B446E
:1017A8009B00034448331B68B2FBF3F101FB03F3CE
:1017B800D31A002B12D1FB7803F00F027968134675
:1017C8009B0013449B000B44183300221A60F978DD
:1017D80000230022786802F03EF91FE0BB6800226F
:1017E800C3F814227B68D3F8D4327A68B0339B00EC
:1017F80013445B681B69002B10D07B68D3F8D43284
:101808007A68B0339B0013445B681B69BA68D2F8E6
:101818000802BA6802F50471FA7898470023184656
:101828001037BD4680BD80B584B000AF78600B46E8
:10183800FB707B68D3F8D4227B68B03253F822302F
:10184800FB607B68D3F8D4227B68B03253F822302F
:10185800002B01D103231AE0FB781946786802F0BF
:101868003CF90246FB68C3F80C227B68D3F8D432F3
:101878007A68B0339B0013445B68DB68FA68D2F877
:101888000402FA6802F503721146984700231846C5
:101898001037BD4680BD80B584B000AF78607B68E6
:1018A800D3F8D4227B68B03253F82230FB60FB684F
:1018B800002B01D1032325E07B68D3F8D4327A6862
:1018C800B0339B0013445B68002B1AD0FB6893F875
:1018D8000032FF2B15D07B68D3F8D4327A68B03346
:1018E8009B0013445B689B68FA6892F80002F968E9
:1018F800FA6892F8012292B29847FB68FF2283F8AF
:101908000022002318461037BD4680BD80B586B03A
:1019180000AF78608221184800F009FD7861012144
:10192800154800F004FD38618121134800F0FFFCE0
:10193800F8607B69002B02D07B6910229A713B69A1
:10194800002B06D03B69002242F040021A710022A7
:101958005A71FB68002B06D0FB68002242F0400257
:101968001A7100225A717B6843221A80024B18466A
:101978001837BD4680BD00BF4800002080B586B03E
:1019880000AF78608221184800F0D1FC786101210D
:10199800154800F0CCFC38618121134800F0C7FCE1
:1019A800F8607B69002B02D07B6910229A713B6931
:1019B800002B06D03B6900221A71002242F0020275
:1019C8005A71FB68002B06D0FB6800221A710022AE
:1019D80042F002025A717B6843221A80024B184671
:1019E8001837BD4680BD00BF4800002080B586B0CE
:1019F80000AF78608221184800F099FC78610121D5
:101A0800154800F094FC38618121134800F08FFCE0
:101A1800F8607B69002B02D07B6910229A713B69C0
:101A2800002B06D03B69002242F040021A710022C6
:101A38005A71FB68002B06D0FB68002242F0400276
:101A48001A7100225A717B6843221A80024B184689
:101A58001837BD4680BD00BF4800002080B483B061
:101A680000AF78607B680A221A80034B18460C374F
:101A7800BD465DF8047B70470400002080B483B045
:101A880000AF786039603B68002B01D1032309E07F
:101A98007B68D3F8D4327A68B0339B0013443A6831
:101AA8005A60002318460C37BD465DF8047B704722
:101AB80080B487B000AFF860B9607A60FB68D3F88B
:101AC800D422FB68B03253F822307B617B69002B4B
:101AD80001D1032308E07B69BA68C3F808227B694F
:101AE8007A68C3F81022002318461C37BD465DF8F3
:101AF800047B704780B485B000AF786039607B683C
:101B0800D3F8D4227B68B03253F82230FB60FB68EC
:101B1800002B01D1032304E0FB683A68C3F80422D0
:101B2800002318461437BD465DF8047B7047000053
:101B380080B584B000AF78607B68D3F8D4227B6826
:101B4800B03253F82230FB607B68D3F8D4227B682C
:101B5800B03253F82230002B01D1032318E07B6800
:101B68001B7C002B0AD10C4B1978FB68D3F8042294
:101B78004FF40073786801F08FFF08E0064B19787E
:101B8800FB68D3F804224023786801F085FF00231E
:101B980018461037BD4680BD8C00002080B586B041
:101BA80000AFF860B9601346FB71FB68002B01D1E8
:101BB80003231FE0FB680022C3F8B822FB68002259
:101BC800C3F8C422FB680022C3F8D022BB68002BEC
:101BD80003D0FB68BA68C3F8B422FB68012283F813
:101BE8009C22FB68FA791A70F86801F0FBFD03463D
:101BF800FB75FB7D18461837BD4680BD80B584B09F
:101C080000AF786039600023FB813B68002B01D16D
:101C1800032325E07B683A68C3F8B8227B68D3F8C9
:101C2800D4227B68AE3253F82230DB6A002B0FD007
:101C38007B68D3F8D4227B68AE3253F82230DB6A53
:101C480007F10E021046984702467B68C3F8D02277
:101C58007B68D3F8D8325A1C7B68C3F8D822002393
:101C680018461037BD4680BD80B582B000AF786099
:101C7800786801F007FE034618460837BD4680BD60
:101C880080B483B000AF7860002318460C37BD4697
:101C98005DF8047B704780B584B000AF78600B4670
:101CA800FB700023FB737B68D3F8B832002B09D094
:101CB8007B68D3F8B8321B68FA7811467868984779
:101CC8000346FB73FB7B18461037BD4680BD80B5C5
:101CD80084B000AF78600B46FB700023FB737B6811
:101CE800D3F8B8325B68FA781146786898470346A3
:101CF800002B01D00323FB73FB7B18461037BD462E
:101D080080BD80B584B000AF786039607B6803F22D
:101D1800AA233968184601F008F97B680122C3F83C
:101D280094227B68B3F8B0321A467B68C3F89822CD
:101D38007B6893F8AA3203F01F03022B1AD0022BF8
:101D480022D8002B02D0012B0AD01DE07B6803F2B9
:101D5800AA231946786800F05FFB0346FB7320E06E
:101D68007B6803F2AA231946786800F0C7FB03468C
:101D7800FB7316E07B6803F2AA231946786800F023
:101D880029FC0346FB730CE07B6893F8AA3223F026
:101D98007F03DBB21946786801F0D4FD0346FB7374
:101DA80000BFFB7B18461037BD4680BD80B586B0A6
:101DB80000AFF8600B467A60FB720023FB75FB7A74
:101DC800002B6ED1FB6803F5AA733B61FB68D3F85F
:101DD8009432032B40F098803B699A683B69DB6832
:101DE8009A4213D93B699A683B69DB68D21A3B6906
:101DF8009A603B69DA683B699B68934228BF13463F
:101E08001A467968F86801F084F97DE0FB6893F870
:101E1800AA3203F01F03022B14D0022B1DD8002B6B
:101E280002D0012B03D018E00023BB7518E0FB6833
:101E3800B3F8AE32DBB21946F86800F05EFA034632
:101E4800BB750DE0FB68B3F8AE32DBB21946F86833
:101E580000F060FA0346BB7502E00023BB7500BFC3
:101E6800BB7D002B19D1FB6893F89C32DBB2032BA6
:101E780013D1BA7DFB68AE3253F822301B69002BB0
:101E88000BD0BA7DFB68C3F8D422BA7DFB68AE32AA
:101E980053F822301B69F8689847F86801F04AF946
:101EA80032E0FB7A03F07F03DBB21946F86800F0F2
:101EB80031FA0346BB75BB7DFF2B25D0BB7D002BBC
:101EC80022D1FB6893F89C32DBB2032B17D1BA7D81
:101ED800FB68AE3253F822309B69002B0FD0BA7DD5
:101EE800FB68C3F8D422BA7DFB68AE3253F82230BF
:101EF8009B69FA7A1146F86898470346FB75FB7D9B
:101F0800002B01D0FB7D00E0002318461837BD46A2
:101F180080BD80B586B000AFF8600B467A60FB7272
:101F2800FB7A002B6FD1FB6814333B61FB68D3F855
:101F38009432022B5AD13B699A683B69DB689A4212
:101F480014D93B699A683B69DB68D21A3B699A6085
:101F58003B699B681A467968F86801F0ACF8002379
:101F680000220021F86801F097FD3FE03B69DA683C
:101F78003B699B689A421CD13B695A683B69DB689C
:101F88009A4216D33B695A68FB68D3F898329A424A
:101F98000FD200220021F86801F08DF8FB680022BA
:101FA800C3F89822002300220021F86801F074FD8C
:101FB8001CE0FB6893F89C32DBB2032B0FD1FB6863
:101FC800D3F8B832DB68002B09D0FB680022C3F8CD
:101FD800D422FB68D3F8B832DB68F86898478021C8
:101FE800F86801F0AFFCF86801F0B7F8FB6893F8FF
:101FF800A032002B3AD0F868FFF742FEFB680022B7
:1020080083F8A02232E0FB7A63F07F03DBB2194643
:10201800F86800F07FF90346FB75FB7DFF2B25D0A0
:10202800FB7D002B22D1FB6893F89C32DBB2032B9B
:102038001CD1FA7DFB68AE3253F822305B69002B65
:1020480014D0FA7DFB68C3F8D422FA7DFB68AE325F
:1020580053F822305B69FA7A1146F86898470346C4
:10206800BB75BB7D002B01D0BB7D00E0002318466B
:102078001837BD4680BD80B584B000AF78600023B6
:10208800FB737B68012283F89C227B680022C3F8DB
:1020980094227B6800225A607B680022C3F8A4223D
:1020A8007B68002283F8A0227B68D3F8B832002B23
:1020B80014D07B68D3F8B8325B68002B0ED07B68ED
:1020C800D3F8B8325B687A685268D2B21146786839
:1020D80098470346002B01D00323FB7340230022BB
:1020E8000021786801F0E9FB7B680122A3F86421EC
:1020F8007B684022C3F86021402300228021786851
:1021080001F0DBFB7B6801229A847B6840221A621B
:10211800FB7B18461037BD4680BD80B483B000AF46
:1021280078600B46FB707B68FA781A7400231846AF
:102138000C37BD465DF8047B704780B483B000AFB0
:1021480078607B6893F89C32DAB27B6883F89D22CA
:102158007B68042283F89C22002318460C37BD466E
:102168005DF8047B704780B483B000AF78607B680B
:1021780093F89C32DBB2042B06D17B6893F89D322E
:10218800DAB27B6883F89C22002318460C37BD46D8
:102198005DF8047B704780B582B000AF78607B68DB
:1021A80093F89C32DBB2032B10D17B68D3F8B8329A
:1021B800002B0BD07B68D3F8B832DB69002B05D035
:1021C8007B68D3F8B832DB697868984700231846EB
:1021D8000837BD4680BD80B582B000AF78600B4639
:1021E800FB707B68D3F8D4227B68AE3253F8223078
:1021F800002B01D103231CE07B6893F89C32DBB2EF
:10220800032B15D17B68D3F8D4227B68AE3253F800
:1022180022301B6A002B0BD07B68D3F8D4227B6852
:10222800AE3253F822301B6AFA781146786898471C
:10223800002318460837BD4680BD80B582B000AF80
:1022480078600B46FB707B68D3F8D4227B68AE328B
:1022580053F82230002B01D103231CE07B6893F84C
:102268009C32DBB2032B15D17B68D3F8D4227B6870
:10227800AE3253F822305B6A002B0BD07B68D3F860
:10228800D4227B68AE3253F822305B6AFA78114662
:1022980078689847002318460837BD4680BD80B443
:1022A80083B000AF7860002318460C37BD465DF850
:1022B800047B704780B584B000AF78600023FB735F
:1022C8007B68012283F89C227B68D3F8B832002B04
:1022D8000ED07B68D3F8B8325B687A685268D2B29D
:1022E8001146786898470346002B01D00323FB73F7
:1022F800FB7B18461037BD4680BD80B483B000AF65
:1023080078600B46FB70002318460C37BD465DF815
:10231800047B704780B483B000AF78600B46FB70D5
:10232800002318460C37BD465DF8047B704780B51E
:1023380086B000AF78600B46FB707B687B617B687A
:10234800FB6000233B61FB685B889AB2FB681B78E3
:102358009BB29A4220D9FB681B789BB27B8113E021
:1023680007F10A031946786900F01BF878617B6960
:102378005B78052B08D17B693B613B699B78FA78D0
:102388009A4208D000233B61FB685B889AB27B893C
:102398009A42E5D800E000BF3B6918461837BD46A9
:1023A80080BD80B485B000AF786039607B68FB6021
:1023B8003B681A88FB681B789BB213449AB23B6847
:1023C8001A80FB681B781A467B681344FB60FB681D
:1023D80018461437BD465DF8047B704780B487B053
:1023E80000AF78607B687B617B691B787B827B6947
:1023F80001337B617B691B783B823B8A1B021AB2E3
:10240800B7F9123013431BB2FB81FB8918461C37FE
:10241800BD465DF8047B704780B584B000AF786036
:1024280039600023FB733B681B7803F06003402B83
:1024380005D0402B57D8002B0FD0202B53D17B68C9
:10244800D3F8D4227B68AE3253F822309B683968BF
:10245800786898470346FB734AE03B685B78092B2A
:102468003BD801A252F823F0C5240008D92400085B
:10247800E3240008CF240008E3240008A32400086C
:1024880099240008E3240008BB240008AD240008B0
:102498003968786800F03CFA24E03968786800F018
:1024A800A1FB1FE03968786800F0E0FB0346FB7386
:1024B80018E03968786800F083FC13E039687868B8
:1024C80000F0B4FC0EE03968786800F0E3FC09E03D
:1024D8003968786800F007FD04E03968786800F02A
:1024E8005EFD00BF04E03968786800F058FD00BF61
:1024F800FB7B18461037BD4680BD00BF80B584B051
:1025080000AF786039600023FB733B681B7803F0E9
:102518006003402B05D0402B52D8002B01D0202B34
:102528004ED17B6893F89C32DBB2013B022B40D83A
:102538003B689B88DBB2012B36D83B689B88DBB2B3
:1025480019467868FFF7D9FE0346BB73BB7BFF2BA0
:102558001DD0BB7B002B1AD1BA7B7B68AE3253F8F7
:1025680022309B68002B0FD0BA7B7B68C3F8D4223B
:10257800BA7B7B68AE3253F822309B68396878683A
:1025880098470346FB7304E00323FB7301E003232E
:10259800FB733B68DB88002B10D1FB7B002B0DD134
:1025A800786800F0C7FD09E03968786800F0F7FC42
:1025B80004E03968786800F0F2FC00E000BF04E04D
:1025C8003968786800F0EBFC00BFFB7B18461037D1
:1025D800BD4680BD80B584B000AF78603960002307
:1025E800FB733B689B88BB733B681B7803F06003F5
:1025F800402B07D0402B00F27F81002B2AD0202BC4
:1026080040F07A81BB7B19467868FFF783FE034662
:102618007B737B7BFF2B00F074817B7B002B40F06E
:1026280070817A7B7B68C3F8D4227A7B7B68AE3270
:1026380053F822309B68002B00F063817A7B7B681B
:10264800AE3253F822309B68396878689847034659
:10265800FB7356E13B685B78032B08D0032B00F330
:102668004581002B00F09B80012B3CD03EE17B682C
:1026780093F89C32DBB2022B02D0032B16D02CE04D
:10268800BB7B002B0DD0BB7B802B0AD0BB7B1946B4
:10269800786801F057F98021786801F053F900BF94
:1026A80020E03968786800F07AFC1BE03B685B88BA
:1026B800002B0ED1BB7B002B0BD0BB7B802B08D013
:1026C8003B68DB88002B04D1BB7B1946786801F096
:1026D80039F9786800F02EFD04E03968786800F070
:1026E8005EFC00BF07E17B6893F89C32DBB2022BEB
:1026F80002D0032B16D04BE0BB7B002B0DD0BB7B4D
:10270800802B0AD0BB7B1946786801F01BF9802121
:10271800786801F017F900BF40E03968786800F080
:102728003EFC3BE03B685B88002B36D1BB7B03F06B
:102738007F03002B04D0BB7B1946786801F021F990
:10274800786800F0F7FCBB7B19467868FFF7E2FD74
:1027580003467B737B7BFF2B1FD07B7B002B1CD11D
:102768007A7B7B68C3F8D4227A7B7B68AE3253F8D5
:1027780022309B68002B10D07A7B7B68AE3253F8EE
:1027880022309B683968786898470346FB7304E0F1
:102798003968786800F003FC00E000BFABE07B68B4
:1027A80093F89C32DBB2022B02D0032B32D097E095
:1027B800BB7B002B07D0BB7B802B04D039687868A3
:1027C80000F0EDFB91E097F90E30002B0BDABB7BA4
:1027D80003F07F0213469B0013449B0010337A6872
:1027E800134404330BE0BB7B03F07F0213469B00CA
:1027F80013449B0003F5A8737A6813440433BB6041
:10280800BB6800221A60BB6802221946786800F08B
:1028180037FC6AE097F90E30002B11DABB7B03F026
:102828000F02796813469B0013449B000B44243322
:102838001B88002B17D13968786800F0B0FB54E08A
:10284800BB7B03F00F02796813469B0013449B007F
:102858000B4403F5B2731B88002B04D139687868E0
:1028680000F09DFB41E097F90E30002B0BDABB7BA3
:1028780003F07F0213469B0013449B0010337A68D1
:10288800134404330BE0BB7B03F07F0213469B0029
:1028980013449B0003F5A8737A6813440433BB60A0
:1028A800BB7B002B02D0BB7B802B03D1BB680022F3
:1028B8001A600EE0BB7B1946786801F081F8034680
:1028C800002B03D0BB6801221A6002E0BB6800221B
:1028D8001A60BB6802221946786800F0D1FB04E050
:1028E8003968786800F05BFB00BF04E039687868F5
:1028F80000F055FB00BF05E03968786800F04FFB31
:1029080000E000BFFB7B18461037BD4680BD0000C5
:1029180080B584B000AF7860396000233B81002324
:10292800FB600023FB723B685B881B0A9BB2013B80
:10293800062B00F2288101A252F823F06129000831
:1029480079290008B92900088F2B00088F2B000867
:102958002F2B00085B2B00087B68D3F8B4321B6868
:102968007A68127C07F1080110469847F86012E16E
:102978007B681B7C002B0DD17B68D3F8B8329B6A2F
:1029880007F1080210469847F860FB6801330222F5
:102998001A7000E17B68D3F8B832DB6A07F10802E5
:1029A80010469847F860FB68013302221A70F2E07B
:1029B8003B685B88DBB2052B00F2AC8001A252F8C1
:1029C80023F000BFE5290008192A00084D2A00084D
:1029D800812A0008B52A0008E92A00087B68D3F88C
:1029E800B4325B68002B0BD07B68D3F8B4325B68D9
:1029F8007A68127C07F1080110469847F86091E060
:102A08003968786800F0CBFAFB7A0133FB7289E009
:102A18007B68D3F8B4329B68002B0BD07B68D3F863
:102A2800B4329B687A68127C07F10801104698470F
:102A3800F86077E03968786800F0B1FAFB7A01331A
:102A4800FB726FE07B68D3F8B432DB68002B0BD0E5
:102A58007B68D3F8B432DB687A68127C07F1080126
:102A680010469847F8605DE03968786800F097FA92
:102A7800FB7A0133FB7255E07B68D3F8B4321B69EB
:102A8800002B0BD07B68D3F8B4321B697A68127CB0
:102A980007F1080110469847F86043E039687868FC
:102AA80000F07DFAFB7A0133FB723BE07B68D3F8D8
:102AB800B4325B69002B0BD07B68D3F8B4325B6906
:102AC8007A68127C07F1080110469847F86029E0F7
:102AD8003968786800F063FAFB7A0133FB7221E009
:102AE8007B68D3F8B4329B69002B0BD07B68D3F892
:102AF800B4329B697A68127C07F10801104698473E
:102B0800F8600FE03968786800F049FAFB7A013319
:102B1800FB7207E03968786800F041FAFB7A013304
:102B2800FB7200BF37E07B681B7C002B09D17B68F8
:102B3800D3F8B8325B6B07F1080210469847F86083
:102B480029E03968786800F02AFAFB7A0133FB72C9
:102B580021E07B681B7C002B0DD17B68D3F8B83251
:102B68001B6B07F1080210469847F860FB680133B1
:102B780007221A700FE03968786800F010FAFB7ABB
:102B88000133FB7207E03968786800F008FAFB7ACD
:102B98000133FB7200BFFB7A002B1ED13B68DB8838
:102BA800002B16D03B89002B0ED03B68DA883B8976
:102BB800934228BF13469BB23B813B891A46F9686A
:102BC800786800F05DFA09E03968786800F0E7F99C
:102BD80004E0786800F0AEFA00E000BF1037BD46A8
:102BE80080BD00BF80B584B000AF786039603B68B5
:102BF8009B88002B31D13B68DB88002B2DD13B68AB
:102C08005B887F2B29D83B685B88DBB203F07F03A6
:102C1800FB737B6893F89C32DBB2032B04D13968D1
:102C2800786800F0BCF91DE07B68FA7B83F89E2287
:102C3800FB7B1946786800F0EFFE786800F07AFAB6
:102C4800FB7B002B04D07B68022283F89C2209E0DE
:102C58007B68012283F89C2204E03968786800F0D8
:102C68009EF900BF00BF1037BD4680BD80B584B057
:102C780000AF786039600023FB733B685B88DAB289
:102C88004E4B1A704D4B1B78012B05D93968786863
:102C980000F085F903238CE07B6893F89C32DBB263
:102CA800022B02D0032B29D075E0444B1B78002B54
:102CB80020D0424B1B781A467B685A603F4B1B78E2
:102CC80019467868FEF7E7FF0346FB73FB7B002B8A
:102CD80008D03968786800F062F97B68022283F8C6
:102CE8009C2265E0786800F025FA7B68032283F867
:102CF8009C225DE0786800F01DFA59E02F4B1B78A4
:102D0800002B12D17B68022283F89C222B4B1B7864
:102D18001A467B685A60294B1B7819467868FEF773
:102D2800D6FF786800F006FA42E0244B1B781A4672
:102D38007B685B689A422AD07B685B68DBB219467D
:102D48007868FEF7C4FF1D4B1B781A467B685A60EB
:102D58001A4B1B7819467868FEF79DFF0346FB73EC
:102D6800FB7B002B0FD03968786800F018F97B6876
:102D78005B68DBB219467868FEF7A9FF7B68022218
:102D880083F89C2214E0786800F0D4F910E07868A1
:102D980000F0D0F90CE03968786800F000F9074BCA
:102DA8001B7819467868FEF792FF0323FB7300BF70
:102DB800FB7B18461037BD4680BD00BFDC030020F2
:102DC80080B582B000AF786039603B68DB88012B42
:102DD80004D03968786800F0E2F823E07B6893F85B
:102DE8009C32DBB2022B02DC002B03DC15E0032B48
:102DF8000BD012E07B6800229A607B6808330122BE
:102E08001946786800F03CF90CE07B68043301222D
:102E18001946786800F034F904E03968786800F0F9
:102E2800BEF800BF00BF0837BD4680BD80B582B080
:102E380000AF786039607B6893F89C32DBB2013B65
:102E4800022B1ED83B68DB88022B04D039687868CF
:102E580000F0A5F81AE07B680122DA607B68D3F8F5
:102E6800A432002B05D07B68DB6843F002027B6844
:102E7800DA607B680C3302221946786800F000F9A2
:102E880004E03968786800F08AF800BF00BF0837A6
:102E9800BD4680BD80B582B000AF786039603B68C0
:102EA8005B88012B07D17B680122C3F8A4227868CC
:102EB80000F040F913E03B685B88022B0BD13B68BC
:102EC8009B881B0A9BB2DAB27B6883F8A0227868D9
:102ED80000F030F903E03968786800F060F800BF66
:102EE8000837BD4680BD80B582B000AF78603960D4
:102EF8007B6893F89C32DBB2013B022B0BD83B6812
:102F08005B88012B0CD17B680022C3F8A422786867
:102F180000F010F904E03968786800F040F800E043
:102F280000BF00BF0837BD4680BD80B584B000AF84
:102F3800786039603B68FB60FB681A787B681A70B8
:102F4800FB680133FB60FB681A787B685A70FB6882
:102F58000133FB60F868FFF741FA03461A467B68BD
:102F68005A80FB680133FB60FB680133FB60F8683B
:102F7800FFF734FA03461A467B689A80FB680133E8
:102F8800FB60FB680133FB60F868FFF727FA03462C
:102F98001A467B68DA8000BF1037BD4680BD80B511
:102FA80082B000AF786039608021786800F0CAFC90
:102FB8000021786800F0C6FC00BF0837BD4680BD18
:102FC80080B586B000AFF860B9607A600023FB7501
:102FD800FB68002B36D0FB683B61386900F036F897
:102FE800034601339BB25B009AB27B681A80FB7D73
:102FF800BA6813447A6812781A70FB7D0133FB753E
:10300800FB7DBA68134403221A70FB7D0133FB75FC
:1030180013E0FB7DBA6813443A6912781A703B6969
:1030280001333B61FB7D0133FB75FB7DBA681344BB
:1030380000221A70FB7D0133FB753B691B78002B5E
:10304800E7D100E000BF1837BD4680BD80B485B029
:1030580000AF78600023FB737B68BB6005E0FB7BF7
:103068000133FB73BB680133BB60BB681B78002B63
:10307800F5D1FB7B18461437BD465DF8047B7047D5
:1030880080B584B000AFF860B9607A60FB6802224E
:10309800C3F89422FB687A689A61FB687A68DA61F7
:1030A8007B68BA680021F86800F0D5FC0023184650
:1030B8001037BD4680BD80B584B000AFF860B960F8
:1030C8007A607B68BA680021F86800F0C4FC0023C5
:1030D80018461037BD4680BD80B584B000AFF86093
:1030E800B9607A60FB680322C3F89422FB687A68A7
:1030F800C3F85821FB687A68C3F85C217B68BA6812
:103108000021F86800F0C8FC002318461037BD46B7
:1031180080BD80B584B000AFF860B9607A607B6824
:10312800BA680021F86800F0B7FC00231846103789
:10313800BD4680BD80B582B000AF78607B68042250
:10314800C3F89422002300220021786800F083FC51
:10315800002318460837BD4680BD80B582B000AF51
:1031680078607B680522C3F894220023002200219E
:10317800786800F091FC002318460837BD4680BDEA
:1031880080B500AF002212491248FEF707FD03463A
:10319800002B01D0FDF738FD0F490E48FEF72EFD34
:1031A8000346002B01D0FDF72FFD0C490948FEF717
:1031B80065FC0346002B01D0FDF726FD0548FEF708
:1031C80053FD0346002B01D0FDF71EFD00BF80BD57
:1031D800A4000020E0030020100000209000002040
:1031E80080B500AF002205490548FEF761FC054996
:1031F8000348FEF77FFC0023184680BDBC0E002064
:10320800E0030020BC06002080B400AF002318466D
:10321800BD465DF8047B704780B483B000AF0346B9
:103228003960FB711346BB80FB79232B4AD801A276
:1032380052F823F0CD320008CD320008CD32000814
:10324800CD320008CD320008CD320008CD3200085A
:10325800CD320008CD320008CD320008CD3200084A
:10326800CD320008CD320008CD320008CD3200083A
:10327800CD320008CD320008CD320008CD3200082A
:10328800CD320008CD320008CD320008CD3200081A
:10329800CD320008CD320008CD320008CD3200080A
:1032A800CD320008CD320008CD320008CD320008FA
:1032B800CD320008CD320008CD320008CD320008EA
:1032C800CD32000800BF002318460C37BD465DF814
:1032D800047B704780B582B000AF78603960796848
:1032E8000548FEF707FC0448FEF722FC00231846B1
:1032F8000837BD4680BD00BFE003002080B487B01A
:1033080000AFF860B9601346FB710023FB7597F9AD
:10331800173018461C37BD465DF8047B704700001F
:1033280080B483B000AF03463960FB713B6812225A
:103338001A80034B18460C37BD465DF8047B70476E
:10334800C000002080B483B000AF03463960FB7131
:103358003B6804221A80034B18460C37BD465DF8BB
:10336800047B7047D400002080B582B000AF0346CC
:103378003960FB71FB79002B05D13A680749084889
:10338800FFF71EFE04E03A6804490548FFF718FEF7
:10339800024B18460837BD4680BD00BFBC1600204A
:1033A800408E000880B582B000AF03463960FB71DB
:1033B8003A6804490448FFF703FE024B18460837E9
:1033C800BD4680BDBC160020588E000880B582B06E
:1033D80000AF03463960FB713B681A221A8000F07F
:1033E80043F8024B18460837BD4680BDD800002078
:1033F80080B582B000AF03463960FB71FB79002BC2
:1034080005D13A6807490848FFF7DAFD04E03A6849
:1034180004490548FFF7D4FD024B18460837BD4656
:1034280080BD00BFBC1600206C8E000880B582B03D
:1034380000AF03463960FB71FB79002B05D13A6870
:1034480007490848FFF7BCFD04E03A680449054805
:10345800FFF7B6FD024B18460837BD4680BD00BFD2
:10346800BC160020788E000880B584B000AF0F4BE2
:103478001B68FB600E4B1B68BB600E4B1B687B60B8
:10348800FA687B681344FB60FB68002B09D00822AC
:103498000949F86800F014F804220849B86800F0EF
:1034A8000FF800BF1037BD4680BD00BF107AFF1F60
:1034B800147AFF1F187AFF1FDA000020EA000020A4
:1034C80080B487B000AFF860B9601346FB71002381
:1034D800FB750023FB7527E0FB681B0F092B0BD836
:1034E800FB681B0FDAB2FB7D5B001946BB680B4417
:1034F8003032D2B21A700AE0FB681B0FDAB2FB7DD9
:103508005B001946BB680B443732D2B21A70FB68AD
:103518001B01FB60FB7D5B000133BA68134400228A
:103528001A70FB7D0133FB75FA7DFB799A42D3D380
:1035380000BF00BF1C37BD465DF8047B7047000024
:1035480080B5A0B000AF786007F16C0300221A6064
:103558005A609A60DA601A6107F114035822002150
:10356800184605F055FC7B681B68B3F1A04F48D19D
:1035780020237B6100237B6407F11403184602F0C3
:10358800F5FA0346002B01D0FDF73EFB00233B6113
:103598001E4B1B6B1D4A43F0010313631B4B1B6B34
:1035A80003F001033B613B694FF4C053FB66022300
:1035B8003B6700237B670323BB670A23FB6707F18D
:1035C8006C031946124800F009FD104B5B6B0F4A5B
:1035D80043F0800353630023FB600C4B5B6C0B4A86
:1035E80043F480435364094B5B6C03F48043FB60F2
:1035F800FB6800220021432000F09DFC432000F0DE
:10360800B6FC00BF8037BD4680BD00BF0038024011
:103618000000024080B582B000AF78607B68D3F8C4
:1036280008257B6803F2C44319461046FEF769FB78
:1036380000BF0837BD4680BD80B582B000AF786056
:103648000B46FB707B68D3F80805FA78796813464F
:10365800DB0013449B000B4403F523731A68FB78C3
:103668001946FEF7A3FB00BF0837BD4680BD80B5ED
:1036780082B000AF78600B46FB707B68D3F8080512
:10368800FA7879681346DB0013449B000B444C33EB
:103698001A68FB781946FEF73CFC00BF0837BD46A0
:1036A80080BD80B582B000AF78607B68D3F80835FC
:1036B8001846FEF770FD00BF0837BD4680BD80B5CF
:1036C80084B000AF78600123FB737B68DB68022B52
:1036D80001D0FDF799FA7B68D3F80835FA7B1146D3
:1036E8001846FEF71AFD7B68D3F808351846FEF72A
:1036F800C2FC00BF1037BD4680BD000080B582B057
:1037080000AF78607B68D3F808351846FEF715FDDA
:103718007B681B6803F560631B687A68126802F5AA
:10372800606243F0010313607B681B6A002B05D0BD
:10373800044B1B69034A43F00603136100BF0837B3
:10374800BD4680BD00ED00E080B582B000AF786076
:103758007B68D3F808351846FEF705FD00BF083723
:10376800BD4680BD80B582B000AF78600B46FB7067
:103778007B68D3F80835FA7811461846FEF75DFDE0
:1037880000BF0837BD4680BD80B582B000AF786005
:103798000B46FB707B68D3F80835FA781146184653
:1037A800FEF719FD00BF0837BD4680BD80B582B061
:1037B80000AF78607B68D3F808351846FEF76FFDD0
:1037C80000BF0837BD4680BD80B582B000AF7860C5
:1037D8007B68D3F808351846FEF76CFD00BF08373C
:1037E800BD4680BD80B582B000AF78607B681B782D
:1037F800002B3FD1224A7B68C2F808357B68204AF3
:10380800C3F8C8221E4B4FF0A0421A601C4B062278
:103818005A601B4B0222DA60194B00221A61184BBE
:1038280002229A61164B0022DA61154B00221A62B5
:10383800134B00225A62124B00229A62104B00224C
:10384800DA620F4B00221A630D4800F041FF03466D
:10385800002B01D0FDF7D8F98021094800F0F7FEC8
:1038680040220021064800F0ABFE802201210448D6
:1038780000F0A6FE002318460837BD4680BD00BFED
:10388800BC18002080B584B000AF78600023FB73BB
:103898000023BB737B68D3F8C832184601F03CF8A4
:1038A8000346FB73FB7B184600F042F90346BB73E3
:1038B800BB7B18461037BD4680BD80B584B000AFCD
:1038C8007860084611461A460346FB700B46BB70E3
:1038D80013463B800023FB730023BB737B68D3F83C
:1038E800C802BB783A88F97801F03AFD0346FB73C1
:1038F800FB7B184600F01CF90346BB73BB7B1846DC
:103908001037BD4680BD80B584B000AF78600B46E7
:10391800FB700023FB730023BB737B68D3F8C832AA
:10392800FA781146184601F083FD0346FB73FB7BCA
:10393800184600F0FDF80346BB73BB7B18461037EA
:10394800BD4680BD80B584B000AF78600B46FB7083
:103958000023FB730023BB737B68D3F8C832FA7863
:103968001146184601F05BFE0346FB73FB7B1846C5
:1039780000F0DEF80346BB73BB7B18461037BD4624
:1039880080BD80B584B000AF78600B46FB70002323
:10399800FB730023BB737B68D3F8C832FA781146EF
:1039A800184601F0A0FE0346FB73FB7B184600F0A7
:1039B800BFF80346BB73BB7B18461037BD4680BDB6
:1039C80080B485B000AF78600B46FB707B68D3F895
:1039D800C832FB6097F90330002B0BDAFB7803F051
:1039E8007F02F9681346DB0013449B000B443E3307
:1039F8001B780BE0FB7803F07F02F9681346DB00C5
:103A080013449B000B4403F27E231B78184614379B
:103A1800BD465DF8047B704780B584B000AF786020
:103A28000B46FB700023FB730023BB737B68D3F842
:103A3800C832FA781146184601F06DFC0346FB734C
:103A4800FB7B184600F074F80346BB73BB7B184633
:103A58001037BD4680BD80B586B000AFF8607A608B
:103A68003B600B46FB720023FB750023BB75FB68AC
:103A7800D3F8C802F97A3B687A6801F086FD0346F4
:103A8800FB75FB7D184600F053F80346BB75BB7DFC
:103A980018461837BD4680BD80B586B000AFF860BF
:103AA8007A603B600B46FB720023FB750023BB75F5
:103AB800FB68D3F8C802F97A3B687A6801F002FD1E
:103AC8000346FB75FB7D184600F032F80346BB75CC
:103AD800BB7D18461837BD4680BD80B582B000AFA3
:103AE80078600B46FB707B68D3F8C832FA781146C9
:103AF800184601F032FD034618460837BD4680BD1A
:103B080080B483B000AF7860034B18460C37BD46CD
:103B18005DF8047B704700BFC81D002080B483B0E7
:103B280000AF786000BF0C37BD465DF8047B704776
:103B380080B485B000AF0346FB710023FB73FB79AB
:103B4800032B17D801A252F823F000BF653B0008E9
:103B58006B3B0008713B0008773B00080023FB73B0
:103B68000BE00323FB7308E00123FB7305E0032349
:103B7800FB7302E00323FB7300BFFB7B184614377B
:103B8800BD465DF8047B704780B584B000AF7860AF
:103B98007B68002B01D10123EDE07B6893F820308E
:103BA800DBB2002B02D17868FCF720FD7B681B682C
:103BB8001A687B681B6842F001021A6003F08CFCEB
:103BC800F86012E003F088FC0246FB68D31A0A2B5F
:103BD8000BD97B685B6A43F400327B685A627B6866
:103BE800052283F820200123C5E07B681B685B68F9
:103BF80003F00103002BE5D07B681B681A687B681B
:103C08001B6822F002021A6003F066FCF86012E0FA
:103C180003F062FC0246FB68D31A0A2B0BD97B68B7
:103C28005B6A43F400327B685A627B68052283F83A
:103C3800202001239FE07B681B685B6803F0020378
:103C4800002BE5D17B681B7E012B08D17B681B68A4
:103C58001A687B681B6842F080021A6007E07B687C
:103C68001B681A687B681B6822F080021A607B68F0
:103C78005B7E012B08D17B681B681A687B681B6810
:103C880042F040021A6007E07B681B681A687B688C
:103C98001B6822F040021A607B689B7E012B08D1CA
:103CA8007B681B681A687B681B6842F020021A60F0
:103CB80007E07B681B681A687B681B6822F0200293
:103CC8001A607B68DB7E012B08D17B681B681A6849
:103CD8007B681B6822F010021A6007E07B681B688B
:103CE8001A687B681B6842F010021A607B681B7FA9
:103CF800012B08D17B681B681A687B681B6842F037
:103D080008021A6007E07B681B681A687B681B68F2
:103D180022F008021A607B685B7F012B08D17B6860
:103D28001B681A687B681B6842F004021A6007E087
:103D38007B681B681A687B681B6822F004021A609B
:103D48007B689A687B68DB681A437B681B691A433F
:103D58007B685B6942EA03017B685B685A1E7B6883
:103D68001B680A43DA617B6800225A627B68012279
:103D780083F82020002318461037BD4680BD000078
:103D880080B485B000AF78607B6803F00703FB6000
:103D98000C4BDB68BB60BA684FF6FF031340BB608F
:103DA800FB681A02BB68134343F0BF6343F4003354
:103DB800BB60044ABB68D36000BF1437BD465DF8DA
:103DC800047B704700ED00E080B400AF044BDB6873
:103DD8001B0A03F007031846BD465DF8047B7047CD
:103DE80000ED00E080B483B000AF0346FB7197F9A3
:103DF8000730002B0BDBFB7903F01F02074997F90B
:103E080007305B09012000FA02F241F8232000BFC5
:103E18000C37BD465DF8047B704700BF00E100E049
:103E280080B483B000AF03463960FB7197F907305F
:103E3800002B0ADB3B68DAB20C4997F9073012010C
:103E4800D2B20B4483F800230AE03B68DAB208498F
:103E5800FB7903F00F03043B1201D2B20B441A762C
:103E680000BF0C37BD465DF8047B704700E100E0F9
:103E780000ED00E080B489B000AFF860B9607A6006
:103E8800FB6803F00703FB61FB69C3F10703042B1D
:103E980028BF0423BB61FB690433062B02D9FB69E5
:103EA800033B00E000237B614FF0FF32BB6902FA5D
:103EB80003F3DA43BB681A407B699A404FF0FF313D
:103EC8007B6901FA03F3D9437B680B401343184617
:103ED8002437BD465DF8047B7047000080B582B08A
:103EE80000AF78607B68013BB3F1807F01D3012389
:103EF8000FE00A4A7B68013B53600F214FF0FF3007
:103F0800FFF78EFF054B00229A60044B07221A60C8
:103F1800002318460837BD4680BD00BF10E000E00A
:103F280080B582B000AF78607868FFF729FF00BFDE
:103F38000837BD4680BD80B586B000AF0346B9607E
:103F48007A60FB7300237B61FFF73EFF78617A6834
:103F5800B9687869FFF78EFF024697F90F30114666
:103F68001846FFF75DFF00BF1837BD4680BD80B516
:103F780082B000AF0346FB7197F907301846FFF788
:103F880031FF00BF0837BD4680BD80B582B000AFA5
:103F980078607868FFF7A2FF034618460837BD46E1
:103FA80080BD80B582B000AF78607B68002B01D1FE
:103FB80001230EE07B685B79DBB2002B05D17B68BF
:103FC80000221A717868FCF7A1FB7B6801225A71FC
:103FD800002318460837BD4680BD000080B489B06C
:103FE80000AF7860396000237B6100233B610023C8
:103FF800BB610023FB6165E10122FB6902FA03F35F
:104008007B613B681B687A6913403B613A697B694D
:104018009A4240F054813B685B6803F00303012B2C
:1040280005D03B685B6803F00303022B30D17B6843
:104038009B68BB61FB695B00032202FA03F3DB4365
:10404800BA691340BB613B68DA68FB695B0002FA36
:1040580003F3BA691343BB617B68BA699A607B68EA
:104068005B68BB610122FB6902FA03F3DB43BA69AF
:104078001340BB613B685B681B0903F00102FB69E5
:1040880002FA03F3BA691343BB617B68BA695A60E1
:104098003B685B6803F00303032B17D07B68DB687E
:1040A800BB61FB695B00032202FA03F3DB43BA69D5
:1040B8001340BB613B689A68FB695B0002FA03F333
:1040C800BA691343BB617B68BA69DA603B685B68AD
:1040D80003F00303022B23D1FB69DA087B6808325B
:1040E80053F82230BB61FB6903F007039B000F22E2
:1040F80002FA03F3DB43BA691340BB613B681A69F0
:10410800FB6903F007039B0002FA03F3BA69134340
:10411800BB61FB69DA087B680832B96943F8221089
:104128007B681B68BB61FB695B00032202FA03F32F
:10413800DB43BA691340BB613B685B6803F0030269
:10414800FB695B0002FA03F3BA691343BB617B683E
:10415800BA691A603B685B6803F44033002B00F0CF
:10416800AE800023FB605D4B5B6C5C4A43F480438C
:1041780053645A4B5B6C03F48043FB60FB68584AFA
:10418800FB699B08023352F82330BB61FB6903F0DB
:1041980003039B000F2202FA03F3DB43BA691340BF
:1041A800BB617B684F4A934225D07B684E4A934255
:1041B8001FD07B684D4A934219D07B684C4A934282
:1041C80013D07B684B4A93420DD07B684A4A93428E
:1041D80007D07B68494A934201D106230CE00723A4
:1041E8000AE0052308E0042306E0032304E0022391
:1041F80002E0012300E00023FA6902F003029200C2
:104208009340BA691343BB613549FB699B08023384
:10421800BA6941F823203A4B9B68BB613B69DB4391
:10422800BA691340BB613B685B6803F48013002BD9
:1042380003D0BA693B691343BB61314ABB699360D8
:104248002F4BDB68BB613B69DB43BA691340BB6139
:104258003B685B6803F40013002B03D0BA693B6921
:104268001343BB61264ABB69D360254B5B68BB61BE
:104278003B69DB43BA691340BB613B685B6803F485
:104288000033002B03D0BA693B691343BB611C4A56
:10429800BB6953601A4B1B68BB613B69DB43BA6956
:1042A8001340BB613B685B6803F48033002B03D089
:1042B800BA693B691343BB61114ABB691360FB6967
:1042C8000133FB61FB690F2B7FF696AE00BF00BF81
:1042D8002437BD465DF8047B704700BF00380240B4
:1042E800003801400000024000040240000802407B
:1042F800000C024000100240001402400018024066
:10430800003C014080B483B000AF78600B467B80EE
:1043180013467B707B78002B03D07A887B689A6180
:1043280003E07B881A047B689A6100BF0C37BD469E
:104338005DF8047B7047000080B584B000AF7860FA
:104348007B68002B01D101232BE17B6893F83D307A
:10435800DBB2002B06D17B68002283F83C2078680A
:10436800FCF710FB7B68242283F83D207B681B68E0
:104378001A687B681B6822F001021A607B681B6858
:104388001A687B681B6842F400421A607B681B68E5
:104398001A687B681B6822F400421A6002F0ECFA83
:1043A800F8607B685B68814A934207D8FB68804A5B
:1043B800934294BF01230023DBB206E0FB687D4AE9
:1043C800934294BF01230023DBB2002B01D00123C9
:1043D800E7E0FB68784AA2FB03239B0CBB607B6881
:1043E8001B685B6823F03F017B681B68BA680A4357
:1043F8005A607B681B681B6A23F03F017B685B6817
:104408006A4A934202D8BB68013309E0BB684FF49B
:10441800967202FB03F3694AA2FB03239B0901334B
:104428007A6812680B4313627B681B68DB6923F4A4
:104438004F4222F0FF027B685B685C498B4219D8C7
:10444800FB68591E7B685B685B00B1FBF3F3591C82
:1044580040F6FC730B40002B0AD0FB68591E7B68A2
:104468005B685B00B1FBF3F30133C3F30B0351E06B
:1044780004234FE07B689B68002B11D1FB68581E12
:104488007B6859680B465B000B44B0FBF3F30133C0
:10449800C3F30B03002B0CBF01230023DBB212E094
:1044A800FB68581E7B6859680B469B000B449900B3
:1044B8000B44B0FBF3F30133C3F30B03002B0CBF26
:1044C80001230023DBB2002B01D0012322E07B680B
:1044D8009B68002B0ED1FB68581E7B6859680B46F9
:1044E8005B000B44B0FBF3F30133C3F30B0343F45A
:1044F80000430FE0FB68581E7B6859680B469B0019
:104508000B4499000B44B0FBF3F30133C3F30B03E3
:1045180043F44043796809681343CB617B681B689F
:104528001B6823F0C0017B68DA697B681B6A1A4341
:104538007B681B680A431A607B681B689B6823F4C6
:10454800034323F0FF037A6811697A68D26811433C
:104558007A6812680B4393607B681B68DB6823F0FA
:10456800FF017B685A697B689B691A437B681B68F3
:104578000A43DA607B681B681A687B681B6842F02C
:1045880001021A607B6800221A647B68202283F883
:104598003D207B6800221A637B68002283F83E2056
:1045A800002318461037BD4680BD00BFA086010015
:1045B8007F841E00FF083D0083DE1B43D34D62103D
:1045C80080B485B000AF78600B46FB7013463B8023
:1045D8007B681B685B6ABB60FB78002B07D13B8854
:1045E80019047B681B68BA680A439A6228E07B68EA
:1045F8001B689B6A1B0CBA681344BB600023FB73DF
:104608000DE07B681A68FB7B40339B0013445B68B2
:104618001B0CBA681344BB60FB7B0133FB73FA7B4A
:10462800FB78013B9A42ECD33B8818047B681968F5
:10463800FB78013BBA68024340339B000B445A6045
:10464800002318461437BD465DF8047B704780B4D4
:1046580083B000AF78600B467B807B681B687A88E4
:104668005A62002318460C37BD465DF8047B704734
:1046780080B485B000AF78607B681B68FB607B689E
:104688000122C3F800257B68002283F8F424FB6824
:104698009B6943F00062FB689A61FB685B6D43F0BD
:1046A800805343F00303FA68536500231846143710
:1046B800BD465DF8047B704780B483B000AF786076
:1046C8000B46FB7000BF0C37BD465DF8047B704796
:1046D800F0B58FB00AAF78607B68002B01D1012359
:1046E80016E17B681B68BB607B6893F8BD34DBB25E
:1046F800002B06D17B68002283F8BC247868FEF77B
:104708001FFF7B68032283F8BD24BB68DB6B03F4BF
:104718008073002B02D17B6800221A617B681B68BA
:10472800184603F01EF87B681B683B607E686D4680
:1047380006F110040FCC0FC50FCC0FC594E8030089
:1047480085E80300331D0ECB386802F0F5FE0346FA
:10475800002B05D07B68022283F8BD240123D7E013
:104768007B681B680021184603F00CF80023FB73D4
:104778004AE0FA7B79681346DB0013449B000B443C
:104788003D3301221A70FA7B79681346DB00134423
:104798009B000B443C33FA7B1A70FA7BFB7B98B284
:1047A80079681346DB0013449B000B4444330246EC
:1047B8001A80FA7B79681346DB0013449B000B448C
:1047C800403300221A70FA7B79681346DB001344E1
:1047D8009B000B44483300221A60FA7B7968134621
:1047E800DB0013449B000B444C3300221A60FA7B15
:1047F80079681346DB0013449B000B4454330022B2
:104808001A60FB7B0133FB73FA7B7B685B689A4217
:10481800AFD30023FB7344E0FA7B79681346DB00CF
:1048280013449B000B4403F27D2300221A70FA7B89
:1048380079681346DB0013449B000B4403F51F7390
:10484800FA7B1A70FA7B79681346DB0013449B00E5
:104858000B4403F5207300221A70FA7B796813461B
:10486800DB0013449B000B4403F5227300221A60FB
:10487800FA7B79681346DB0013449B000B4403F56D
:10488800237300221A60FA7B79681346DB0013440D
:104898009B000B4403F5257300221A60FB7B013350
:1048A800FB73FA7B7B685B689A42B5D37B681B68AD
:1048B8003B607E686D4606F110040FCC0FC50FCC27
:1048C8000FC594E8030085E80300331D0ECB386854
:1048D80002F0A4FF0346002B05D07B68022283F870
:1048E800BD24012314E07B68002283F838207B680C
:1048F800012283F8BD247B685B6A012B02D17868AA
:10490800FFF7B6FE7B681B68184604F0E6F800233C
:1049180018461437BD46F0BD80B584B000AF786046
:104928007B681B68FB607B6893F8BC34012B01D162
:10493800022320E07B68012283F8BC247B689B6A01
:10494800012B09D17B689B69012B05D0FB689B6B08
:1049580043F48032FB689A637B681B68184602F050
:10496800EFFE7B681B68184604F096F87B68002207
:1049780083F8BC24002318461037BD4680BD90B587
:104988008DB000AF78607B681B683B623B6AFB6157
:104998007B681B68184604F054F90346002B40F066
:1049A800B7847B681B68184604F0B8F80346002BE8
:1049B80000F0AD84FB6903F500639B681B0AC3F331
:1049C8000D027B68C3F8FC247B681B68184604F05A
:1049D800A5F8034603F00203022B07D17B681B6886
:1049E8005A697B681B6802F002025A617B681B687F
:1049F800184604F093F8034603F01003102B61D116
:104A08007B681B689A697B681B6822F010029A61B0
:104A18003B6A1B6ABB61BB6903F00F021346DB00EC
:104A280013449B0003F51E737A68134404337B61B7
:104A3800BB695B0C03F00F03022B24D1BA6947F65C
:104A4800F0731340002B35D07B691969BB691B09CA
:104A58009BB2C3F30A039BB21A46386A03F0CAFE34
:104A68007B691A69BB691B09C3F30A031A447B698A
:104A78001A617B691A6ABB691B09C3F30A031A44E2
:104A88007B691A6216E0BB695B0C03F00F03062B07
:104A980010D17B6803F2C44308221946386A03F030
:104AA800A9FE7B691A6ABB691B09C3F30A031A4486
:104AB8007B691A627B681B689A697B681B6842F08D
:104AC80010029A617B681B68184604F027F80346B1
:104AD80003F40023B3F5002F40F0A78000237B6286
:104AE8007B681B68184604F02CF8B86299E0BB6A2A
:104AF80003F00103002B00F08E807B681B687A6A44
:104B0800D2B21146184604F050F838613B6903F0F8
:104B18000103002B0CD07B6A5A01FB69134403F58F
:104B280030631A4601239360796A786800F0F0FED2
:104B38003B6903F00803002B0CD07B6A5A01FB6920
:104B4800134403F530631A4608239360796A78683A
:104B580000F0C6FF3B6903F01003002B08D07B6A06
:104B68005A01FB69134403F530631A461023936016
:104B78003B6903F00203002B30D03B6A5B6903F00A
:104B88008003802B09D1FB6903F500635B68FA6930
:104B980002F5006243F4806353607A6A1346DB00CF
:104BA80013449B0003F51E737A68134404337B6136
:104BB8007B69DB78012B08D17B690022DA707B6A7C
:104BC800DBB219467868FEF7CDFD7B6A5A01FB69AE
:104BD800134403F530631A46022393603B6903F0DC
:104BE8002003002B08D07B6A5A01FB69134403F5A4
:104BF80030631A46202393603B6903F40053002B6B
:104C080009D07B6A5A01FB69134403F530631A46DD
:104C18004FF4005393607B6A01337B62BB6A5B0885
:104C2800BB62BB6A002B7FF462AF7B681B681846C7
:104C380003F074FF034603F48023B3F5802F40F09C
:104C4800DB807B681B68184603F095FFB862002379
:104C58007B62CDE0BB6A03F00103002B00F0C28049
:104C68007B681B687A6AD2B21146184603F0BBFF0C
:104C780038613B6903F00103002B57D07B6A03F0CE
:104C88000F03012202FA03F3FB60FB6903F50063DB
:104C98005A6BFB68DB43F96901F5006113404B630C
:104CA8007B6A5A01FB69134403F510631A46012312
:104CB80093607B681B69012B32D179687A6A134645
:104CC800DB0013449B000B444C33196878687A6AFC
:104CD8001346DB0013449B00034448331B68194404
:104CE80078687A6A1346DB0013449B0003444C330C
:104CF80019607B6A002B13D179687A6A1346DB0046
:104D080013449B000B4454331B68002B08D17B6869
:104D180018687B6803F2C4431A46012103F0C2FFF6
:104D28007B6ADBB219467868FEF7A1FC3B6903F0A1
:104D38000803002B08D07B6A5A01FB69134403F56A
:104D480010631A46082393603B6903F01003002B95
:104D580008D07B6A5A01FB69134403F510631A46AD
:104D6800102393603B6903F04003002B08D07B6A53
:104D78005A01FB69134403F510631A4640239360F4
:104D88003B6903F00203002B23D0796A386A02F0EA
:104D9800A3FE7A6A1346DB0013449B0038337A6813
:104DA800134404337B617B69DB78012B08D17B6971
:104DB8000022DA707B6ADBB219467868FEF7E4FCF9
:104DC8007B6A5A01FB69134403F510631A460223F0
:104DD80093603B6903F08003002B03D0796A7868FD
:104DE80000F008FD7B6A01337B62BB6A5B08BB622B
:104DF800BB6A002B7FF42EAF7B681B68184603F054
:104E08008DFE034603F00043B3F1004F22D1FB6946
:104E180003F500635B68FA6902F5006223F0010399
:104E280053607B6893F8F434012B08D17B68002227
:104E380083F8F42400217868FFF73EFC02E07868E4
:104E4800FEF782FC7B681B685A697B681B6802F066
:104E580000425A617B681B68184603F05FFE0346F0
:104E680003F40063B3F5006F12D1FB6903F5006327
:104E78009B6803F00103012B02D17868FEF73EFC22
:104E88007B681B685A697B681B6802F400625A6178
:104E98007B681B68184603F041FE034603F0006375
:104EA800B3F1006F21D17B681B685A697B681B6866
:104EB80002F000625A617B6893F8F434002B11D138
:104EC8007B68012283F8F4247B681B685B6D9B0870
:104ED80003F00F027B68C3F8F82401217868FFF714
:104EE800EBFB02E07868FEF709FC7B681B68184654
:104EF80003F014FE034603F48053B3F5805F40F0DB
:104F0800B780FB6903F500635B68FA6902F5006224
:104F180023F0010353607B681B681021184602F0D8
:104F2800DBFD0023FB6246E0FB6A5A01FB69134480
:104F380003F510631A464FF67F339360FB6A5A01F4
:104F4800FB69134403F510631B68FA6A5101FA6997
:104F58000A4402F5106223F400131360FB6A5A0135
:104F6800FB69134403F530631A464FF67F339360A9
:104F7800FB6A5A01FB69134403F530631B68FA6A3C
:104F88005101FA690A4402F5306223F400131360F0
:104F9800FB6A5A01FB69134403F530631B68FA6A1C
:104FA8005101FA690A4402F5306243F00063136064
:104FB800FB6A0133FB627B685B68FA6A9A42B3D387
:104FC800FB6903F50063DB69FA6902F5006243F0E7
:104FD8000113D3617B681B6B002B16D0FB6903F5AB
:104FE8000063D3F88430FA6902F5006243F00B03DA
:104FF800C2F88430FB6903F500635B6CFA6902F55B
:10500800006243F00B03536415E0FB6903F500638A
:105018005B69FA6902F5006243F4005343F02B031D
:105028005361FB6903F500631B69FA6902F50062C5
:1050380043F00B031361FB6903F500631B68FA690E
:1050480002F5006223F4FE6313607B6818687B68CE
:105058001B69D9B27B6803F2C4431A4603F022FEE7
:105068007B681B685A697B681B6802F480525A6126
:105078007B681B68184603F051FD034603F4005390
:10508800B3F5005F24D17B681B68184603F0E7FD81
:105098007B681B68184602F09CFD03461A467B682D
:1050A800DA607B681C6801F05BFC01467B68DB68A2
:1050B800DBB21A46204602F0A1FA7868FEF7FFFA3A
:1050C8007B681B685A697B681B6802F400525A6146
:1050D8007B681B68184603F021FD034603F00803AC
:1050E800082B0AD17868FEF7DCFA7B681B685A69D6
:1050F8007B681B6802F008025A617B681B681846C7
:1051080003F00CFD034603F08003802B22D13B6A99
:105118009B6923F080023B6A9A6101237B6214E059
:1051280079687A6A1346DB0013449B000B4403F248
:105138007F231B78012B05D17B6ADBB2194678687F
:1051480000F027FB7B6A01337B627B685B687A6AC5
:105158009A42E5D37B681B68184603F0DFFC0346D8
:1051680003F48013B3F5801F3BD101237B622BE04E
:105178007B6A5A01FB69134403F510631B68BB6122
:1051880079687A6A1346DB0013449B000B4440336A
:105198001B78012B15D1BB69002B12DA79687A6A62
:1051A8001346DB0013449B000B443F3301221A7063
:1051B8007B6ADBB263F07F03DBB21946786800F0E4
:1051C800E8FA7B6A01337B627B685B687A6A9A4299
:1051D800CED37B681B685A697B681B6802F480120F
:1051E8005A617B681B68184603F098FC034603F471
:1051F8000013B3F5001F55D101237B6245E07B6A9C
:105208005A01FB69134403F530631B68BB61796875
:105218007A6A1346DB0013449B000B4403F52073A2
:105228001B78012B2ED1BB69002B2BDABB6903F449
:1052380080327B68D3F8FC3403F001039A4221D111
:1052480079687A6A1346DB0013449B000B4403F227
:105258007F2301221A703B6A9B6943F080023B6AF4
:105268009A613B6A5B6903F08003002B0AD1FB69F2
:1052780003F500635B68FA6902F5006243F40073A2
:10528800536007E07B6A01337B627B685B687A6AFC
:105298009A42B4D37B681B685A697B681B6802F41E
:1052A80000125A617B681B68184603F037FC0346F6
:1052B80003F08043B3F1804F0AD17868FEF776FA9D
:1052C8007B681B685A697B681B6802F080425A61D8
:1052D8007B681B68184603F021FC034603F00403AF
:1052E800042B15D17B681B685B68BB61BB6903F045
:1052F8000403002B02D07868FEF766FA7B681B6807
:1053080059687B681B68BA690A435A6000E000BFA5
:105318003437BD4690BD80B582B000AF78600B468B
:10532800FB707B6893F8BC34012B01D1022313E096
:105338007B68012283F8BC247B68FA7883F83820DC
:105348007B681B68FA781146184603F07FFB7B6878
:10535800002283F8BC24002318460837BD4680BDC8
:1053680080B584B000AF7860084611461A460346F7
:10537800FB700B463B801346BB700023FB7297F90A
:105388000330002B0FDAFB7803F00F021346DB0023
:1053980013449B0038337A6813440433FB60FB687A
:1053A80001225A700FE0FB7803F00F021346DB006E
:1053B80013449B0003F51E737A6813440433FB609F
:1053C800FB6800225A70FB7803F00F03DAB2FB681F
:1053D8001A703A88FB68DA60FB68BA781A71FB6859
:1053E8005B78002B04D0FB681B789AB2FB681A81A3
:1053F800BB78022B02D1FB6800225A717B6893F8B4
:10540800BC34012B01D102230EE07B68012283F812
:10541800BC247B681B68F968184602F0FFFB7B68B0
:10542800002283F8BC24FB7A18461037BD4680BD9D
:1054380080B584B000AF78600B46FB7097F90330F5
:10544800002B0FDAFB7803F00F021346DB0013443E
:105458009B0038337A6813440433FB60FB680122ED
:105468005A700FE0FB7803F00F021346DB00134479
:105478009B0003F51E737A6813440433FB60FB68D2
:1054880000225A70FB7803F00F03DAB2FB681A7037
:105498007B6893F8BC34012B01D102230EE07B68B2
:1054A800012283F8BC247B681B68F968184602F05F
:1054B8003DFC7B68002283F8BC2400231846103783
:1054C800BD4680BD80B586B000AFF8607A603B60AD
:1054D8000B46FB72FB7A03F00F021346DB00134402
:1054E8009B0003F51E73FA68134404337B617B69E0
:1054F8007A681A617B693A689A617B6900221A6244
:105508007B6900225A70FB7A03F00F03DAB27B69D9
:105518001A70FB681B69012B02D17A687B695A6192
:10552800FB7A03F00F03002B09D1FB681868FB68AE
:105538001B69DBB21A46796902F01CFF08E0FB68B8
:105548001868FB681B69DBB21A46796902F0CAFC65
:10555800002318461837BD4680BD80B483B000AF1D
:1055680078600B46FB70FB7803F00F0279681346EE
:10557800DB0013449B000B4403F527731B68184694
:105588000C37BD465DF8047B704780B586B000AF28
:10559800F8607A603B600B46FB72FB7A03F00F02FF
:1055A8001346DB0013449B003833FA681344043372
:1055B8007B617B697A681A617B693A689A617B6961
:1055C80000221A627B6901225A70FB7A03F00F03EA
:1055D800DAB27B691A70FB681B69012B02D17A6801
:1055E8007B695A61FB7A03F00F03002B09D1FB6832
:1055F8001868FB681B69DBB21A46796902F0BAFEC3
:1056080008E0FB681868FB681B69DBB21A46796911
:1056180002F068FC002318461837BD4680BD80B5E7
:1056280084B000AF78600B46FB70FB7803F00F0284
:105638007B685B689A4201D9012350E097F90330EF
:10564800002B0FDAFB7803F00F021346DB0013443C
:105658009B0038337A6813440433FB60FB680122EB
:105668005A700DE0FA781346DB0013449B0003F5EB
:105678001E737A6813440433FB60FB6800225A7077
:10568800FB6801229A70FB7803F00F03DAB2FB681B
:105698001A707B6893F8BC34012B01D102231EE0F9
:1056A8007B68012283F8BC247B681B68F96818466C
:1056B80003F0F8F8FB7803F00F03002B0AD17B689E
:1056C80018687B681B69D9B27B6803F2C4431A4621
:1056D80003F0E8FA7B68002283F8BC24002318460C
:1056E8001037BD4680BD80B584B000AF78600B46EA
:1056F800FB70FB7803F00F027B685B689A4201D964
:10570800012342E097F90330002B0FDAFB7803F00E
:105718000F021346DB0013449B0038337A681344A6
:105728000433FB60FB6801225A700FE0FB7803F03A
:105738000F021346DB0013449B0003F51E737A68BF
:1057480013440433FB60FB6800225A70FB68002294
:105758009A70FB7803F00F03DAB2FB681A707B6863
:1057680093F8BC34012B01D102230EE07B6801229F
:1057780083F8BC247B681B68F968184603F000F9B5
:105788007B68002283F8BC24002318461037BD46E6
:1057980080BD80B584B000AF78600B46FB7097F988
:1057A8000330002B0CDAFB7803F00F021346DB0002
:1057B80013449B0038337A6813440433FB600CE0CD
:1057C800FB7803F00F021346DB0013449B0003F53C
:1057D8001E737A6813440433FB607B681B68F9689E
:1057E800184602F01FFF0346FB72FB7A1846103773
:1057F800BD4680BD80B58AB002AF786039607B68ED
:105808001B687B617B693B613A681346DB00134484
:105818009B0038337A6813440433FB60FB681A6AC8
:10582800FB689B699A4201D901236CE0FB689A697D
:10583800FB681B6AD31AFB61FB68DB68FA699A424A
:1058480002D9FB68DB68FB61FB6903339B08BB611A
:105858002BE0FB689A69FB681B6AD31AFB61FB683B
:10586800DB68FA699A4202D9FB68DB68FB61FB696D
:1058780003339B08BB61FB6819693B68DAB2FB69B3
:1058880098B27B681B69DBB200930346786902F023
:1058980073FFFB681A69FB691A44FB681A61FB68A5
:1058A8001A6AFB691A44FB681A623B685A013B6929
:1058B800134403F510639B699BB2BA699A4209D8ED
:1058C800FB681A6AFB689B699A4203D2FB689B696A
:1058D800002BBED1FB689A69FB681B6A9A4211D8F3
:1058E8003B6803F00F03012202FA03F3BB603B6934
:1058F80003F500635A6BBB68DB43396901F5006146
:1059080013404B63002318462037BD4680BD000076
:1059180080B588B000AF786039607B681B68FB6130
:10592800FB69BB61FB693C3304331B687B613B68E3
:105938005A01BB69134403F530639B683B617B687C
:105948001B69012B7BD13B6903F00803002B15D0A1
:105958007B69614A934240F2B9803B6903F4004392
:10596800002B00F0B3803B685A01BB69134403F570
:1059780030631A464FF400439360A7E03B6903F095
:105988002003002B09D03B685A01BB69134403F577
:1059980030631A462023936098E03B6903F028039C
:1059A800002B40F093807B694B4A93420FD93B69A7
:1059B80003F40043002B0AD03B685A01BB69134427
:1059C80003F530631A464FF4004393607EE03A686B
:1059D8001346DB0013449B0003F51E737A681344D7
:1059E8000433FB60FB68DA693B685901BB690B4407
:1059F80003F530631B69C3F31203D21AFB681A62FA
:105A08003B68002B14D1FB689B69002B09D17B688C
:105A180018687B6803F2C4431A46012103F042F96F
:105A280006E0FB681A69FB681B6A1A44FB681A617E
:105A38003B68DBB219467868FDF7FEFD46E07B69F6
:105A4800264A934224D13B6903F40043002B0AD031
:105A58003B685A01BB69134403F530631A464FF497
:105A68000043936032E03B6903F02003002B08D029
:105A78003B685A01BB69134403F530631A46202377
:105A880093603B68DBB219467868FDF7D5FD1DE0E9
:105A98003B68002B14D179683A681346DB0013443D
:105AA8009B000B4403F525731B68002B08D17B680A
:105AB80018687B6803F2C4431A46002103F0F2F821
:105AC8003B68DBB219467868FDF7B6FD0023184637
